:020000040800F2
:1000000000800120B11E0008AD1E0008AB1E0008D4
:10001000AB1E0008AB1E0008AB1E0008000000006D
:10002000000000000000000000000000AD1E0008FD
:10003000AD1E000800000000AD1E00081D1A0008DB
:10004000AB1E0008AB1E0008AB1E0008AB1E00086C
:10005000AB1E0008AB1E0008AB1E0008AB1E00085C
:10006000AB1E0008AB1E0008AB1E0008AB1E00084C
:10007000AB1E0008AB1E0008AB1E0008AB1E00083C
:10008000AB1E0008AB1E0008AB1E0008AB1E00082C
:10009000AB1E0008AB1E0008AB1E0008AB1E00081C
:1000A000AB1E0008AB1E0008AB1E0008AB1E00080C
:1000B000AB1E0008AB1E0008AB1E0008AB1E0008FC
:1000C000AB1E0008AB1E0008AB1E0008AB1E0008EC
:1000D000AB1E0008AB1E0008AB1E0008AB1E0008DC
:1000E000AB1E0008AB1E0008AB1E0008AB1E0008CC
:1000F000AB1E0008AB1E0008AB1E0008AB1E0008BC
:10010000AB1E0008AB1E0008AB1E0008AB1E0008AB
:10011000AB1E0008AB1E0008AB1E0008AB1E00089B
:10012000AB1E0008AB1E0008AB1E0008AB1E00088B
:10013000AB1E0008AB1E0008AB1E0008AB1E00087B
:10014000AB1E0008AB1E0008AB1E0008AB1E00086B
:10015000AB1E0008AB1E0008AB1E0008AB1E00085B
:10016000AB1E0008AB1E0008AB1E0008AB1E00084B
:10017000AB1E0008AB1E0008AB1E0008AB1E00083B
:10018000AB1E0008AB1E0008AB1E0008AB1E00082B
:10019000AB1E0008AB1E0008AB1E0008AB1E00081B
:1001A000AB1E0008AB1E0008AB1E0008704700BF66
:1001B000F8B503788BB10D4D0D4E04460D2B08D0CC
:1001C0000A2B2A680AD0B2F5FF7F02DCB354013251
:1001D0002A6014F8013F002BF0D1F8BD0448002735
:1001E000875401F003FC2F60F3E700BFA801002053
:1001F000AC0100202DE9F04F87B000231F4C8DF893
:10020000143005AE4FF0140E4FF0CC37052510EB2F
:10021000010C4CF1000CA4FB0C3222F0030303EBA5
:100220009203ACEB030CB0EB0C02A2FB048961F16E
:10023000000A07FB02F208F0010304FB0A224A4409
:10024000A3FB053B814613EB0C034FEA580CB9F1B5
:100250000A0F884603F1300378F1000806F8013DE3
:100260000EF1FF3E4CEAC2704FEA5201CFD20DEBC5
:100270000E00FFF79DFF07B0BDE8F08FCDCCCCCCD2
:100280009FED337AB5EEC00A2DE9F04F20EE070A54
:10029000F1EE10FABEEE007AF6EE007AB8BFF0EE9C
:1002A000477A70EE277A87B017EE900A01F060FF68
:1002B000002984463DDB8E460023264C8DF8143001
:1002C00005AE14204FF0CC3705251CEB0E0141F193
:1002D0000001A4FB013222F0030303EB9203C91ACD
:1002E000BCEB0102A2FB04896EF1000A07FB02F2DB
:1002F00008F0010304FB0A224A44A3FB053BE14644
:100300005B184FEA5801B9F10A0FF04603F13003C8
:1003100078F1000806F8013D00F1FF3041EAC27CA7
:100320004FEA520ED1D26844FFF742FF07B0BDE852
:10033000F08F094A1368B3F5FF7F04DC581C106086
:10034000064A2D20D054DCF1000C61EB410EB3E7DE
:1003500000247449CDCCCCCCA8010020AC010020F5
:100360002DE9F04F0546D048D04F8BB02844994630
:1003700000911446DDF8508000F076FE00233B60CB
:1003800001F05AFB09F1FF3301900291052B00F2B5
:10039000A981DFE813F014012B0146015C01720111
:1003A0000600DFF830A3DFF830934FF0000B504623
:1003B00001E00AEB40100BF1010B4A46414600F008
:1003C000FDFE0BF00F005C4500EB4000F1D101F0A9
:1003D00033FB8246B6480C463035FFF7E9FE4FF056
:1003E00000080DF123008DF823508DF82480FFF7CD
:1003F000DFFEB048B04DFFF7DBFE0098FFF7D8FEF8
:10040000AE48FFF7D5FE5B468DF82480DA170DF174
:10041000240914204FF0CC3B4FF0050ECDF800A07E
:100420000394991841F10001A5FB014626F003044D
:1004300004EB9604091B5C1A9A46944662F1000389
:100440000BFB04F205FB0322A4FB053403F00106B9
:100450002244A6FB0E466418BAF10A0F4FEA530372
:1004600004F130047CF1000C43EAC27309F8014D39
:1004700000F1FF304FEA5202D3D204AB1844DDF84A
:1004800000A0039C8C4DFFF793FE8D48FFF790FE74
:1004900000233A688DF824800DF1240E142098462C
:1004A0004FF0CC3B4FF0050CCDF800A0D11841F136
:1004B0000001A5FB016727F0030606EB9706891BE1
:1004C000561A9246994663F100020BFB06F305FBB0
:1004D0000233A6FB052602F001073344A7FB0C6795
:1004E0007618BAF10A0F4FEA520206F1300679F196
:1004F000000942EAC3720EF8016D00F1FF304FEAC5
:100500005303D3D204AB1844DDF800A06A4EFFF7C2
:100510004FFE6C48FFF74CFE019B8DF82480BAEB30
:100520000301029B09AF64EB030514204FF0CC3E9E
:100530004FF0050C4A1942F10002A6FB023424F0E8
:10054000030303EB9403D21A8B1A65F100090EFB27
:1005500003F406FB0944A3FB06831C4408F00103D3
:10056000A3FB0C3989469B182A46B9F10A0F4FEABA
:10057000580803F1300372F1000207F8013D00F161
:10058000FF3048EAC4714FEA5405D3D204AB184493
:10059000FFF70EFE4C484D4FFFF70AFE01F04CFAF4
:1005A000002604460D4601F047FA001B61EB0501E9
:1005B000874276EB0101F6D20BB0BDE8F08FDFF891
:1005C00014A1DFF818814FF0000B504601E00AEB50
:1005D000401000F0F7FC0BF1010B0BF00F005C4535
:1005E00088ED000A00EB4000F1D1F0E6DFF8EC8086
:1005F000374EDFF8ECA04FF0000B4FF06409AAFB78
:100600000B30400909FB10B000EB400006EB401036
:1006100000F0D8FC0BF1010B5C4588ED000AEED12F
:10062000D5E6DFF8B0A0DFF8B0804FF0000B504601
:1006300001E00AEB40100BF1010B414600F032FDE6
:100640000BF00F005C4500EB4000F2D1BFE6DFF895
:1006500084A0DFF884804FF0000B504601E00AEBE5
:1006600040100BF1010B414601F014F80BF00F00A4
:100670005C4500EB4000F2D1A9E6DFF858A0DFF8B6
:1006800058904FF0000B504601E00AEB40100BF180
:10069000010B4A46414600F049FF0BF00F005C4554
:1006A00000EB4000F1D192E6D7273501641C002011
:1006B000302B0008382B0008CDCCCCCC402B0008C8
:1006C000482B0008542B00085C2B0008FF083D0055
:1006D000142C00089451000844010020400100201F
:1006E0001F85EB514FF0000B4FEAE87601F0A4F9BB
:1006F00081468A4601F0A0F9B0EB090061EB0A01DE
:100700004045B141F6D30BF1010B5C45EED15EE6FD
:100710002DE9F04F2DED028B01208DB001F0BCF8DA
:1007200001F08AF9B54E04460D4601F085F9001B2B
:1007300061EB0501B04271F10001F6D3B04BB14A53
:100740001A6000F0D7FCB048B04F9FEDB18AB14CB1
:10075000FFF72EFD002141F62860FFF74BFDAE4864
:10076000FFF726FD0021C820FFF744FDAB48FFF747
:100770001FFDAB480021FFF73DFDAA48FFF718FD1C
:100780004FF00008C146BA464646A749A64D504616
:1007900000F088FCA548FFF70BFD4FF0000219EBB5
:1007A00006038DF82C202CBF012200221344A4FB49
:1007B000032121F0030202EB91029B1AB9EB030320
:1007C00066F10001A3FB043204FB01225B0843EA4B
:1007D000C27303EB8303A9EB43033033B9F10A0F70
:1007E0008DF82B3076F1000323BF31238DF82A30AA
:1007F0001220132006AB1844FFF7DAFC8C48FFF7F1
:10080000D7FC504600F0DEFBFFF73AFD8948FFF7C2
:10081000CFFC0027CDF808A0CDF81490B246D5ED56
:10082000007AF5EEC07AF1EE10FAFEEE006A67EE9D
:10083000887AB6EE007AB8BFB0EE667A77EE877A3D
:1008400017EE900A01F094FC002903460A4650DB9B
:10085000CDE903574FF00001029E8DF82C100DF1E9
:100860002C0914204FF0CC3B4FF00508991841F1AA
:100870000001A4FB015727F0030505EB9705491B71
:100880005D1A9E46944662F100030BFB05F204FBE1
:100890000322A5FB043503F001072A44A7FB0857F0
:1008A0006D18BEF10A0F4FEA530305F130057CF1D4
:1008B000000C43EAC27309F8015D00F1FF304FEA12
:1008C0005202D3D2DDE9035706AB18440137029632
:1008D000FFF76EFC182F1BD0574B1B68B3F5FF7F3B
:1008E00005DC56492C22CA54534A0133136004359F
:1008F00095E7514A1268B2F5FF7F05DC4F4E2D2077
:10090000B0544D48013202605B4261EB41029FE707
:10091000DDF8149043485646DDF808A0FFF748FC80
:1009200019F101039946464B0AF1600A46F10006A7
:100930009A457FF42AAF4348FFF73AFC00F09CFB4E
:10094000FFF79EFC4048FFF733FC404B93ED000A55
:10095000FFF796FC3348FFF72BFC0024304B3C4953
:1009600000930025002301222046FFF7F9FC3949B6
:10097000009501234FF4FA622046FFF7F1FC364957
:10098000009502234FF47A722046FFF7E9FC3349C1
:1009900000950323C8222046FFF7E2FC304900956A
:1009A0000423C8222046FFF7DBFC41F288332D499F
:1009B0000093032205232046FFF7D2FC15232A4982
:1009C0000093032206232046FFF7CAFCD2232749BF
:1009D0000093012206232046FFF7C2FC4FF4036375
:1009E00000932349062301222046FFF7B9FC0CB9E6
:1009F0000124B3E71F48FFF7DBFBFEE70048E801EF
:100A0000601C0020AD010008602B00089451000814
:100A100000247449CDCCCCCC742B00087C2B00086E
:100A20000024F4005C2B000844010020842B000803
:100A30008C2B0008902B0008A8010020AC0100209E
:100A400094570008982B0008A02B000834120020AF
:100A5000A82B0008B02B0008BC2B0008C82B0008EE
:100A6000D42B0008E02B0008EC2B0008F82B000822
:100A7000042C0008102C000838B5194B33F910303D
:100A8000002B2DED048B044621DB164B164D33F95C
:100A9000100005EB800393ED009AFFF7EDFF134B79
:100AA00033F9140005EB8003F0EE408A93ED008AE1
:100AB000FFF7E2FF28EE008A05EB8405A9EE288AFD
:100AC000D5ED007A88EE270ABDEC048B38BDBDEC6D
:100AD000048B074B03EB800393ED000A38BD00BF86
:100AE0002461020834AC0108A47E0008E46F010808
:100AF00044F700082DE9F04F2DED068B85B09FEDF2
:100B0000C08A149EDDF854800391B146F0EE408A0D
:100B1000B0EE609A05469B469246464609F10104AE
:100B20000BEB04174FEA041842465946384601F0C9
:100B300085FAA8F1100E47F80E60BE44CEED018A8A
:100B40008EED029AB9F1000F40F095804FF07E5380
:100B5000CEF80C304FF0FF3CAA4B33F91560002E55
:100B6000C0F2C080A84BA94A03EB8503D3ED007AFD
:100B700032F915000AEB860393ED007AA44BB4EE2C
:100B8000E77A33F91530F1EE10FA98465CBF8046EB
:100B90001846A04BAD001D4403EB800295ED00AA62
:100BA000D2ED007A03EB8803B9F1000F87EE8A0AD1
:100BB0004FF00005D3ED00AA03DA06E00135A945A0
:100BC00003DB2B01FB58B342F8D1AC4200F00281A9
:100BD00007EB0512D2ED019A9EED037AD2ED020ADF
:100BE000BCF1000F20EE290A0CF1010B41DB07EEEE
:100BF000904A07EB0C11F8EEE75A5B4616E006EE5A
:100C0000103AB8EEC66A27EE257A26EE206A103929
:100C100087EE065A013B29EE857A81ED075A67EE89
:100C2000277A87EEA57A36EEC77A17D0A4EB030CA5
:100C300007EE90CAF5EE400AF1EE10FAD1ED036A24
:100C4000F8EEE77ADBD165EEA66A69EEA77A10398D
:100C500086EEA75A013B81ED075AE7D1A94508DD89
:100C6000536953609369936013691360103296451A
:100C7000F6D15D46B2E0B9F1010C8EED038A3FF585
:100C80006BAF07EE104A0BEB491BDBED077AF8EE72
:100C9000C75A72464B4612ED017A06EE903A29EE9B
:100CA000076AB8EEE65A68EE876A26EE056AE11A28
:100CB00086EE257A013BA2F1100277EE277A07EE45
:100CC000101AB8EEC77AC2ED077A27EE267AC7EE79
:100CD000257AC2ED037ADED14A4B33F91560002E36
:100CE000BFF640AF4E46002EDDF80CA06DDD4A4B3E
:100CF00003EB8503D3ED003A07EB0C15A9EB0C00D1
:100D0000BCF1000F97ED066AD7ED054A9EED037A18
:100D1000DFED3B5A49DB03462A4622E007EE901AF4
:100D200006EE904AF8EEE77AF8EEE66A67EE867A23
:100D300027EE267A87EE275A07EE903AF8EEE77A02
:100D400092ED037A87EEA64A65EE647A75EE855ACF
:100D5000A4EE277A9E4203F10101A2F1100224D0F1
:100D60000B46B5EE406AF1EE10FAA4EB0301D5D1C3
:100D7000F5EE404AF1EE10FAECD0D2ED037A87EEB0
:100D8000A44A9E4203F10101A2F1100207EE903A3B
:100D9000F8EEE76A07EE904AF8EEE77A86EEA75A91
:100DA000C4EE057A75EEA75ADAD157F8103F36EE41
:100DB000646A0AEB8303D3ED007A26EE256ABE450A
:100DC000E6EE237AC3ED007A9AD105B0BDEC068B2E
:100DD000BDE8F08FF7EE000AF0EE609ACDE900561C
:100DE00003999FED079A3B465246FFF783FECAEEF2
:100DF0008A8AA946BB46454668EEA98A8EE600BFA8
:100E0000000000002461020884E8010834AC0108F5
:100E1000E46F0108A47E000844F700082DE9F04FB4
:100E20002DED028BDFF894A19FED617A68220346D5
:100E300000FB02F29FB008461D460AEB0204514631
:100E4000D1ED007A0E4677EE877A6831A142C6ED81
:100E5000007AF5D1DFF860B19FED568A0093CDE9B5
:100E600001520027D94603900024D446A742BCEC87
:100E7000010A5E464846DE4607F101081FD0734668
:100E800093ED007AC0EE077A0134054644450EF131
:100E9000680E06F16406E5EC017A23D0BCEC010A89
:100EA00031464B4693ED007AF1EC017A9842A7EE79
:100EB000670A03F10403F5D1A7422846DFD1B4EE57
:100EC000C80AF1EE10FAD8BF9FED3A0A01F08AFC89
:100ED00007EB8703384A03EB8303234402EB8303C6
:100EE00083ED000A009B43450AF1640A09F1640995
:100EF00001D04746B8E7DDE90152DFF8C490009B16
:100F00000398F9EC017ADFF8B0C0CDE900520DF199
:100F1000140E744600265A46D2ED006A87EEA67A71
:100F2000B742A2460BF1680B0CF1640C04F1040407
:100F300006F1010604ED017A0ED0F9EC017A724651
:100F4000654692ED007AF5EC016A9245E6EEC77AC5
:100F500002F10402F5D1DEE7DDE90052164900EBAB
:100F60008300683A8E180EEB83030446454573ED03
:100F7000017A0BDA02463146B2EC017AD1ED196AF8
:100F8000944201F16401E6EEC77AF5D13246D2ED22
:100F9000006A87EEA67A7345A6F1680605F1FF356B
:100FA00020ED017AE2D11FB0BDEC028BBDE8F08FDD
:100FB00017B7D138CCBC8C2B100400209C12002019
:100FC000381200201F49204A0B68DFED207A2DE9F6
:100FD000F04101330446DFF88CE01D4D1D481E4FE3
:100FE0001E4E0B6002F5C87C0921002932F9023B34
:100FF00014DB05EB830804EB8101D1ED006A98ED69
:10100000007AF4EEC76AF1EE10FA4CBF36F91330ED
:1010100037F9133030F913100029EADA0EEB8303A5
:1010200093ED007A944577EE877A04D0B2F90030D8
:1010300030F91310D9E79FED0A0A37EEC00ABDE870
:10104000F08100BF641C0020147D00080000000037
:1010500084E8010824610208E46F010834AC010847
:101060001E0E354044F70008024B012838BF01200E
:10107000186070470000002008B5084A9FED087A04
:1010800002F5C87132F9020FFFF7F6FC8A4237EE1B
:10109000007AF7D1B0EE470A08BD00BF127D000804
:1010A0001E0E35C02DE9F0470D4682B0064660227F
:1010B000002128460D4CDFF8388000F06DFF4FF01E
:1010C000FF3A04F5C879002734F9020FF7EE000A59
:1010D000CDE9007AB0EE600A434632462946FFF772
:1010E00009FD4C45F0D102B0BDE8F087127D000843
:1010F000340E00202DE9F043244C9FED256ADFF8E3
:10110000B4E0DFF8B4C0234D2348DFED245A244F68
:10111000244E04F51658244ADFED1D7A09210029D2
:1011200032F9023B14DB05EB830904EB8101D1EDBD
:10113000006A99ED007AF4EEC76AF1EE10FA4CBF3E
:1011400036F9133037F9133030F913100029EADA81
:101150000CEB830393ED007A964577EE877A04D003
:10116000B2F9003030F91310D9E777EEE57A603440
:10117000A04536EE276ACED19FED0C7A0C4BC6EE19
:10118000077AC3ED007ABDE8F08300BF94570008EA
:101190000000000084E80108246102081E0E3540AA
:1011A000E46F010834AC0108147D00080000C84257
:1011B00034120020A47E000844F700082DE9F04F07
:1011C0002DED028BBDB0CDE90301DFEDC36A904682
:1011D0000123B3EE077AC3F1180206EE103A07EEC8
:1011E000902AB8EEC66AF8EEE77A013367EE867A9F
:1011F000182B87EE276A76EE866AECD19FEDB67AD9
:10120000B64BB3EE076A172407EE904AC4F11802F2
:10121000F8EEE75A07EE902AF8EEE77A013C67EE1F
:10122000A57AC6EE275AC5EEA67A37EE277AA3EC42
:10123000017AE9D10398FFF7C5FE40F6C4122146B2
:10124000A748B0EE408A00F0A7FEA64864222146D7
:1012500000F0A2FE049B002B40F33A81A24B0194C4
:10126000A24FA34EA34DA44C0293019B13F0010384
:1012700034D00DF1170212F8013FB3FA83F35B0982
:1012800013700DF12F039342F5D19C4BDFED926A61
:1012900018689FED9B6ADFF888929A4A9A4B0590EE
:1012A0000DF1170ADDF80CC00DF1300E484651461D
:1012B000CB460BE0DCF800904EF8049B0DF12F09B3
:1012C00089450CF1040C00F1040054D011F8019F81
:1012D000B9F1000FEED1D0F80090EDE7DFF84492BD
:1012E0007E49D9F8002082EA423282EA524282EAFA
:1012F0004212C9F80020120A07EE902A4FF0010AA4
:10130000FAEEC47A04E00AF1010ABAF1170F06D026
:10131000B1EC017AB4EEE77AF1EE10FAF3D41822C8
:1013200000210DEB0200059300F036FED9F8001005
:10133000059B00204FF0010C12E082EA4211734A33
:10134000A2FB0102120902EB4202A1EBC202F0323F
:101350006A44012012F8D8ECBEF1000F00F0B4800E
:1013600081EA4132534582EA5242E6D100288CD0CC
:10137000C9F8001089E79FED587ADFF8ACE1D9464B
:10138000092100293EF9020B16DB0DF1300B02EBAF
:10139000800C0BEB8101D1ED005ADCED007AF4EE0C
:1013A000E75AF1EE10FA4CBF34F9100035F910008D
:1013B00033F910100029E8DA06EB8000D0ED007A4E
:1013C000774537EE277A04D0BEF9001033F91110B3
:1013D000D7E74F4937EE467A09F16009494576EE7D
:1013E000876A7FF45DAF9FED4B7A029B059893ED82
:1013F000006A9DF82F30414AC6EE877A07EE103A10
:1014000078EE465AB8EEC75A77EEC67A00F1640312
:10141000E5EE657A13600DF12E02F8EE476A24AB13
:101420001AF8011F07EE101AB8EE477A524537EE48
:10143000667AA3EC017AF3D12A4A294824AB92EDCB
:10144000007AD3ED006AA7EEA67A994624A9043360
:10145000A2EC017A84469CED007A91ED006AA6EE3A
:10146000867A894501F10401ACEC017AF3D12A496D
:10147000914200F16400E2D1284B1B6803B1984708
:10148000019B049A01339A4201937FF4EEAE4146E8
:101490001720FFF7C3FC9FED107A434608F15C026A
:1014A000F3EC017A934237EE277AF9D1029BD3ED20
:1014B000007A78EE677A77EEC77AC8ED177A3DB092
:1014C000BDEC028BBDE8F08F02F8D8CC034447E7AF
:1014D000054B0293DBE700BF00000000D80D0020A1
:1014E0009C1200203812002034120020A47E000834
:1014F00044F70008E46F010834AC0108641C0020C4
:101500001E0E354084E8010824610208ABAAAAAA8D
:10151000147D00080000C84294120020601C0020C6
:101520009457000800000020147D00082DE9F04FBA
:101530000D46B5B00021064693464F4840F6C4120A
:1015400000F02AFD4D486422002100F025FD002D09
:1015500040F38A80DFF834A1494FDFF83481CDF8B9
:1015600004B04FF000091BACDAF80030454A83EABA
:10157000433383EA534383EA4313A2FB0320400926
:10158000642202FB103000EB400007EB401003A97F
:10159000B446A3464FF0000E83EA433383EA534335
:1015A00083EA4313DA0F14BF9CED007A90ED007AC2
:1015B00007EE902AA1EC017AF8EEE77A82F00102B8
:1015C0008C42EBEC017A96440CF1040C00F104001F
:1015D000E2D107EE90EAF8EEE77AF3EE086A87EEDA
:1015E000A67ACAF800304FF07E533393DFF888B004
:1015F000B6EE020A27EE477A87EE000A01F014F9E8
:1016000003A8B0EE406AFFF7DDFCDFF870E0A44607
:10161000DCED006ADEED007A66EE266A6046E0EEFA
:10162000267A0CF1040C23465946EEEC017AD1EDF2
:10163000007A93ED007AE6EE877A984203F104038C
:10164000E1EC017AF3D1F0450BF1640BE0D10E4BE4
:101650001B681BB15FFA89F202B9984709F10109C9
:101660004D4581D1DDF804B05946192035B0BDE8AB
:10167000F04FFFF7D3BB00BF9C12002038120020B0
:10168000945700081F85EB51601C002000000020CB
:101690009C1200202DE9F04F474C2DED028B236862
:1016A0009DB081460D46002B69D0444EDFF82CB129
:1016B000DFF83481424C4846FFF784FC60224946FB
:1016C00004A8B0EE408A00F0B9FC3E4BDFED3E6A64
:1016D0001A68DFF818C13D48DFF814E10195294682
:1016E0000DF1100A35465BF8043B4AF8043BCDE99E
:1016F000029A9FED377A374E0923002B36F9029B69
:1017000015DB04AF0CEB890A07EB830393ED006A4A
:10171000DAED007AB4EEE76AF1EE10FA4CBF3EF96A
:10172000199034F9199030F91930002BE9DA2A4B65
:1017300003EB8909D9ED007AB04537EE277A04D05A
:10174000B6F9003030F91330D7E777EE667A019BAF
:10175000DDE9029A78EE677A5D45E3EC017A019360
:1017600059F8043B4AF8043CBDD1164BC1ED177A39
:1017700018321A601DB0BDEC028BBDE8F08F17491E
:10178000174ADFED186A01F16006DFED117AA2F564
:101790001653184690ED007A6033934277EE877ABD
:1017A000F7D187EEA67A1A1DA1EC017AB142ECD1ED
:1017B000012323607AE700BF0C0400200C04002002
:1017C000E46F0108641C00201E0E354024610208ED
:1017D00000000000147D000844F70008AC0300205E
:1017E000147D00080000C842A47E000884E80108B7
:1017F00034AC010810B54FF4186000F0D5FA40F68B
:10180000113000F0D1FA0C23032201214FF0904057
:10181000194C00F07DF90C2207214FF0904000F0A8
:1018200092F90C23012202214FF0904000F050F970
:1018300020464FF4164100F0CFFA2046082100F070
:10184000F1FA2046002100F0F6FA20460C2100F0C3
:10185000FEFA2046002100F0F4FA0021204600F0B4
:10186000FCFA204600F00FFB204600F011FB20465A
:10187000BDE8104000F0F7BA0044004008B504206D
:1018800000F072FB6FF07F4000F062FB00F076FB2F
:10189000BDE8084000F079BB10B5012882B06FD0D8
:1018A000022000F0D5F9022000F0A6F9484C494981
:1018B000494A4A4B236000200B60136000F056FA3F
:1018C000002000F049FA002000F03CFA002000F06F
:1018D000F7F9002000F064F904460028F9D1034626
:1018E0000A220121CDE90000022000F049FA204639
:1018F00000F0AEF9204600F07FF900F0D9F800F0D2
:10190000DFF8042000F0CAF800F0C0F8032000F06F
:101910000FFA204600F078F9314C032000F098F9D6
:10192000032000F069F9236823F0F80343F0B803BB
:101930002360032000F060F9D4F8883043F040635E
:10194000C4F8883040F6921000F02EFA254C00F0D2
:1019500039FAFFF74FFF042000F006FB6FF07F40DD
:1019600000F0F6FA00F00AFB00F00FFBD4E90001EA
:10197000D4E900238B4208BF8242F9D002B010BDE7
:101980000446022000F064F9022000F035F9104806
:10199000154B1049104A036000200B60136000F0E3
:1019A000E5F9002000F0D8F9002000F0CBF900F0B4
:1019B0007FF800F085F8002000F070F800F066F87D
:1019C000204600F0B5F9022000F01EF9A4E700BFA0
:1019D000100000200C0000200800002000B4C40407
:1019E00000100240681C00200024F400017879B146
:1019F00038B5094D0446284600F03AFA14F8011F9C
:101A00000029F8D1BDE8384003480A2100F030BA77
:101A100001480A2100F02CBA0044004010B4054CE3
:101A2000D4E90023501C43F10001C4E900015DF832
:101A3000044B7047681C002070B50B4ED6E900457A
:101A400000F08CFAD6E90023AB4208BFA242F5D1E0
:101A5000621C45F1000113060906181A41EA122119
:101A600061F1000170BD00BF681C0020024A0346FE
:101A70001068034413607047040000206846024B5E
:101A80001B68C01A704700BF04000020024A136898
:101A900043F480731360704700200240034A1368C8
:101AA00023F0070303431360704700BF0020024088
:101AB000024A136843F480631360704700200240B9
:101AC000024A136843F40073136070470020024019
:101AD0002DE9F0410568C46800264FF0030E43FA73
:101AE00006F7FF070DD577000EFA07FC01FA07F895
:101AF00025EA0C0524EA0C0402FA07F748EA050572
:101B00003C430136102EEAD10560C460BDE8F08187
:101B1000012941680CBF19439943F0B541608168C0
:101B20000024032643FA04F5ED0707D5650006FAFD
:101B300005F721EA070102FA05F529430134102CC3
:101B4000F0D18160F0BDF0B5066A456A00234FF020
:101B50000F0C42FA03F4E70707D59C000CFA04F7D0
:101B600026EA070601FA04F426430133082BF0D1D4
:101B700000234FF00F0C03F1080442FA04F4E407C9
:101B800007D59C000CFA04F725EA070501FA04F4CE
:101B900025430133082BEED106624562F0BD0000FB
:101BA000062825D8DFE800F004090E13181C2000D1
:101BB000104B1868C0F3406070470E4B1868C0F3B4
:101BC000404070470B4B1868C0F380207047094BAA
:101BD0001868C0F340007047064BD3F89000F8E750
:101BE000044BD3F89400F4E7024BD3F89800F0E7E5
:101BF000002070470010024008B502461046FFF76B
:101C0000CFFF0028FAD008BD032808D8DFE800F08D
:101C1000160F08020D4A936813F00C0FFBD17047A2
:101C20000A4A936803F00C03042BFAD17047074A61
:101C3000936803F00C03082BFAD17047034A9368AA
:101C400003F00C030C2BFAD1704700BF00100240C8
:101C5000062831D8DFE800F0040A0F141921290002
:101C6000164A136843F0807313607047134A136871
:101C700043F48033F8E7114A136843F48073F3E7C1
:101C80000E4A136843F00103EEE70C4AD2F8903095
:101C900043F00103C2F890307047084AD2F89430FC
:101CA00043F00103C2F894307047044AD2F89830E8
:101CB00043F00103C2F89830704700BF00100240A3
:101CC000062831D8DFE800F0040A0F141921290092
:101CD000164A136823F0807313607047134A136821
:101CE00023F48033F8E7114A136823F48073F3E791
:101CF0000E4A136823F00103EEE70C4AD2F8903045
:101D000023F00103C2F890307047084AD2F89430AB
:101D100023F00103C2F894307047044AD2F8983097
:101D200023F00103C2F89830704700BF0010024052
:101D3000034A936823F0030303439360704700BF93
:101D400000100240034A936823F4605343EAC0231F
:101D50009360704700100240034A936823F4E063E5
:101D600043EA00239360704700100240034A9368DF
:101D700023F0F00343EA0013936070470010024021
:101D800010B5039C0139640644EA01140299044326
:101D900044EA41541C4344EA0224024B44F0807458
:101DA000DC6010BD00100240430903F1804303F5DD
:101DB000043300F01F001968012282400A431A60B0
:101DC00070470000034AD2F8003843F00403C2F819
:101DD000003870470000065010B50E4C0E4BA04264
:101DE0001B684FEA510206D10C4B1B681344B3FB2E
:101DF000F1F1C1600DE00A4CA042F7D1B3FBF1F460
:101E000001FB143302EB0322B2FBF1F202EB0422DA
:101E1000C26010BD003801400C0000200800002006
:101E200000800040036808290CBF23F4805343F46A
:101E3000805303607047436823F440530B4343606F
:101E40007047036823F4C0630B4303607047036863
:101E500023F00C030B4303607047836823F4407343
:101E60000B4383607047036843F0010303607047CE
:101E700038B504460D4600F014F829462046BDE862
:101E8000384000F00AB8036823F02003036070476D
:101E9000036823F0800303607047C1F30801816287
:101EA0007047C3691B06FCD57047FEE7704700000A
:101EB00038B51D4A1D4B1E498B4220D31D4A0021B7
:101EC000934221D34FF0E0231B4CD3F8142D1B4D2C
:101ED00042F40072C3F8142DD3F8882D42F4700236
:101EE000C3F8882DAC4212D3154C164DAC4212D318
:101EF000FEF70EFC144C154DAC4210D338BD52F811
:101F0000040B43F8040BD7E743F8041BD8E754F855
:101F1000043B9847E6E754F8043B9847E6E754F853
:101F2000043B9847E8E700BF949D020800000020AA
:101F300040010020AC1D00208C9D02088C9D0208F1
:101F40008C9D02088C9D02088C9D02088C9D0208C5
:101F50004FF0E02320F07F40586170474FF0E023BE
:101F6000986920F07F4070474FF0E02200F00400B5
:101F7000136923F004030343136170474FF0E02219
:101F8000136943F00203136170474FF0E0221369B5
:101F900043F0010313617047830730B547D0541EE7
:101FA000002A3ED0CAB2034601E0013C39D303F80F
:101FB000012B9D07F9D1032C2CD9CDB205EB0525BA
:101FC0000F2C05EB054535D9A4F1100222F00F0CBA
:101FD00003F1100EE6444FEA121C1A46C2E90055FE
:101FE000C2E9025510327245F8D10CF1010214F029
:101FF0000C0F03EB021204F00F0C13D0ACF104032E
:1020000023F003030433134442F8045B9342FBD1EF
:102010000CF003042CB1C9B21C4403F8011BA34209
:10202000FBD130BD64461346002CF4D1F9E70346DA
:102030001446C0E71A46A446E0E700BF844641EADA
:10204000000313F003036DD1403A41D351F8043B30
:1020500040F8043B51F8043B40F8043B51F8043B82
:1020600040F8043B51F8043B40F8043B51F8043B72
:1020700040F8043B51F8043B40F8043B51F8043B62
:1020800040F8043B51F8043B40F8043B51F8043B52
:1020900040F8043B51F8043B40F8043B51F8043B42
:1020A00040F8043B51F8043B40F8043B51F8043B32
:1020B00040F8043B51F8043B40F8043B51F8043B22
:1020C00040F8043B51F8043B40F8043B403ABDD291
:1020D000303211D351F8043B40F8043B51F8043B33
:1020E00040F8043B51F8043B40F8043B51F8043BF2
:1020F00040F8043B103AEDD20C3205D351F8043BC2
:1021000040F8043B043AF9D2043208D0D2071CBF8D
:1021100011F8013B00F8013B01D30B8803806046B6
:10212000704700BF082A13D38B078DD010F003032C
:102130008AD0C3F10403D21ADB071CBF11F8013B9C
:1021400000F8013B80D331F8023B20F8023B7BE7EB
:10215000043AD9D3013A11F8013B00F8013BF9D216
:102160000B7803704B7843708B78837060467047B0
:1021700007EE900AF5EEC07AF1EE10FA01D400F005
:102180000BB8F1EE677A08B517EE900A00F004F884
:10219000404261EB410108BDD0B500F0ABFA0C4BF9
:1021A000002206460F4600F017F800F0FBFA04463E
:1021B00000F07EFA074B002200F00EF802460B46B4
:1021C0003046394600F036F900F0ECFA2146D0BD31
:1021D0000000F03D0000F04170B54FF0FF0C4CF4F2
:1021E000E06C1CEA11541DBF1CEA135594EA0C0F55
:1021F00095EA0C0F00F0DEF82C4481EA030621EA90
:102200004C5123EA4C5350EA013518BF52EA0335CA
:1022100041F4801143F4801338D0A0FB02CE4FF07C
:102220000005E1FB02E506F00042E0FB03E54FF0AC
:102230000006E1FB03569CF0000F18BF4EF0010EA4
:10224000A4F1FF04B6F5007F64F5407404D25FEAA0
:102250004E0E6D4146EB060642EAC62141EA555153
:102260004FEAC52040EA5E504FEACE2EB4F1FD0C95
:1022700088BFBCF5E06F1ED8BEF1004F08BF5FEA13
:10228000500E50F1000041EB045170BD06F00046C5
:1022900046EA010140EA020081EA0301B4EB5C0472
:1022A000C2BFD4EB0C0541EA045170BD41F480116A
:1022B0004FF0000E013C00F3AB8014F1360FDEBF8F
:1022C000002001F0004170BDC4F10004203C35DA6B
:1022D0000C341BDC04F11404C4F1200500FA05F3EE
:1022E00020FA04F001FA05F240EA020001F000428F
:1022F00021F0004110EBD37021FA04F642EB060105
:102300005EEA430E08BF20EAD37070BDC4F10C042E
:10231000C4F1200500FA04F320FA05F001FA04F2F2
:1023200040EA020001F0004110EBD37041F10001DE
:102330005EEA430E08BF20EAD37070BDC4F12005E9
:1023400000FA05F24EEA020E20FA04F301FA05F251
:1023500043EA020321FA04F001F0004121FA04F2F9
:1023600020EA020000EBD3705EEA430E08BF20EAC9
:10237000D37070BD94F0000F0FD101F00046400003
:1023800041EB010111F4801F08BF013CF7D041EA85
:10239000060195F0000F18BF704703F00046520089
:1023A00043EB030313F4801F08BF013DF7D043EA5A
:1023B0000603704794EA0C0F0CEA135518BF95EA10
:1023C0000C0F0CD050EA410618BF52EA4306D1D197
:1023D00081EA030101F000414FF0000070BD50EAB6
:1023E000410606BF1046194652EA430619D094EA40
:1023F0000C0F02D150EA013613D195EA0C0F05D12A
:1024000052EA03361CBF104619460AD181EA03017D
:1024100001F0004141F0FE4141F470014FF0000035
:1024200070BD41F0FE4141F4780170BD81F0004182
:1024300002E000BF83F0004330B54FEA41044FEAA9
:10244000430594EA050F08BF90EA020F1FBF54EA44
:10245000000C55EA020C7FEA645C7FEA655C00F0E0
:10246000E2804FEA5454D4EB5555B8BF6D420CDDB1
:102470002C4480EA020281EA030382EA000083EA34
:10248000010180EA020281EA0303362D88BF30BDD4
:1024900011F0004F4FEA01314FF4801C4CEA11312A
:1024A00002D0404261EB410113F0004F4FEA033389
:1024B0004CEA133302D0524263EB430394EA050F14
:1024C00000F0A780A4F10104D5F1200E0DDB02FA83
:1024D0000EFC22FA05F2801841F1000103FA0EF217
:1024E000801843FA05F359410EE0A5F120050EF1DD
:1024F000200E012A03FA0EFC28BF4CF0020C43FA0E
:1025000005F3C01851EBE37101F0004507D54FF01A
:10251000000EDCF1000C7EEB00006EEB0101B1F56A
:10252000801F1BD3B1F5001F0CD349085FEA3000B0
:102530004FEA3C0C04F101044FEA445212F5800FBB
:1025400080F09A80BCF1004F08BF5FEA500C50F158
:10255000000041EB045141EA050130BD5FEA4C0C3B
:10256000404141EB0101013C28BFB1F5801FE9D298
:1025700091F0000F04BF01460020B1FA81F308BFBB
:102580002033A3F10B03B3F120020CDA0C3208DD87
:1025900002F1140CC2F10C0201FA0CF021FA02F162
:1025A0000CE002F11402D8BFC2F1200C01FA02F1D2
:1025B00020FA0CFCDCBF41EA0C019040E41AA2BFF7
:1025C00001EB0451294330BD6FEA04041F3C1CDABF
:1025D0000C340EDC04F11404C4F1200220FA04F0DF
:1025E00001FA02F340EA030021FA04F345EA030189
:1025F00030BDC4F10C04C4F1200220FA02F001FA4B
:1026000004F340EA0300294630BD21FA04F02946CC
:1026100030BD94F0000F83F4801306BF81F4801165
:102620000134013D4EE77FEA645C18BF7FEA655CD8
:1026300029D094EA050F08BF90EA020F05D054EAAA
:10264000000C04BF1946104630BD91EA030F1EBFAF
:102650000021002030BD5FEA545C05D140004941B3
:1026600028BF41F0004130BD14F580043CBF01F5A6
:10267000801130BD01F0004545F0FE4141F470018C
:102680004FF0000030BD7FEA645C1ABF1946104667
:102690007FEA655C1CBF0B46024650EA013406BF68
:1026A00052EA033591EA030F41F4002130BD00BF27
:1026B00090F0000F04BF0021704730B54FF48064E4
:1026C00004F132044FF000054FF0000150E700BF65
:1026D00090F0000F04BF0021704730B54FF48064C4
:1026E00004F1320410F0004548BF40424FF00001B1
:1026F0003EE700BF42004FEAE2014FEA31014FEAF4
:1027000002701FBF12F07F4393F07F4F81F0605142
:10271000704732F07F4208BF704793F07F4F04BF8D
:1027200041F40021704730B54FF4607401F000456A
:1027300021F000411CE700BF50EA010208BF7047CA
:1027400030B54FF000050AE050EA010208BF7047BB
:1027500030B511F0004502D5404261EB41014FF424
:10276000806404F132045FEA915C3FF4D8AE4FF02C
:1027700003025FEADC0C18BF03325FEADC0C18BF0F
:10278000033202EBDC02C2F1200300FA03FC20FA60
:1027900002F001FA03FE40EA0E0021FA02F11444AD
:1027A000BDE600BF4A0011D212F5001211D20DD5BC
:1027B0006FF47873B3EB62520ED44FEAC12343F047
:1027C000004343EA505323FA02F070474FF00000F1
:1027D000704750EA013002D14FF0FF3070474FF0A0
:1027E0000000704708B52DED028BB0EE408A00F076
:1027F00061F8B4EE488AF1EE10FA06D6DFED098AE8
:10280000B4EEE88AF1EE10FA02D4BDEC028B08BDFA
:1028100000F088F988EEA80ABDEC028B2123036042
:1028200008BD00BF0000000008B52DED028BB0EE22
:10283000408A00F043F8F0EE408AB0EE480A00F01B
:102840002FF868B1DFED127AB4EEE78AF1EE10FAF4
:102850000BDCDFED107AB4EEE78AF1EE10FA0FD45C
:10286000B0EE680ABDEC028B08BDDFED0B8A00F00C
:1028700059F9B0EE680ABDEC028B2223036008BD53
:1028800000F050F92223DFED058A0360E8E700BF7E
:102890001772B142B5F1CFC20000807F0000000086
:1028A00010EE103A23F00040B0F1FF4FACBF002013
:1028B00001207047B1EEC00A704700BF10EE103A19
:1028C00023F00042B2F1FF4F53D84FEAD37100F02A
:1028D00092806148834200F38480002BC0F28480A0
:1028E0005E4B9A4248D95E4B9A4200F297805D4A0D
:1028F00002EB8102D2ED004AD2ED027A81F00103AF
:1029000070EE644A5B1A34EEE70ADFED576A9FED1A
:10291000575ADFED575A9FED576A20EE007AA7EE1F
:10292000265ADFED556AE5EE075AE5EE876AA6EE10
:10293000876AF0EE406AE6EE476A20EE266A002BD0
:1029400042D0B0EE007A37EE667AB7EE000AC6EEF5
:10295000076A13F17D0F77EEE67A77EEE47A30EED0
:10296000670A4FDB10EE102A02EBC35300EE103A59
:10297000704730EE000A7047B2F1505F0AD2DFEDC7
:102980003F7A70EE277AB7EE007AF4EEC77AF1EE6E
:1029900010FA5DDC60EE007A9FED337ADFED335A9A
:1029A0009FED336ADFED346AE7EE875A9FED317AA7
:1029B000A7EEA56AE7EE866AA7EEA67AF0EE406A71
:1029C000E7EEC76A20EE266AF0EE007A76EEE76A56
:1029D000B7EE007AC6EE267A77EEC07A37EE670A4F
:1029E0007047002000F07AB8254B9A427FF678AF06
:1029F000002000F06DB8DFED237A002918BFB0EE9B
:102A0000670A704710EE102A643302EBC353DFED00
:102A10001E7A00EE103A20EE270A7047114B9FED08
:102A20001B7ADFED1B6A03EB8103D3ED047AE0EE42
:102A3000077A9FED187AFDEEE77AF0EE404A17EE3E
:102A4000903AF8EEE77AE7EEE64A67EE877A5AE7D9
:102A500030EE070A704700BF1772B1421872B13EDC
:102A60009115853F749D02084CBB31330EEADDB5EC
:102A700055B38A38ABAA2A3E610B36BBCAF24971FC
:102A8000B5F1CF42000000000000800D3BAAB83F26
:102A90008071313FD1F7173710B52DED028BB0EEB5
:102AA000408A044600F03EF8B0EE480ABDEC028BC6
:102AB000046010BD28B1F1EE407A27EE800A222092
:102AC000EAE7F0EE407A27EE800A2220E4E700BF32
:102AD0009FED010AEEE700BF000000109FED010A24
:102AE000E8E700BF0000007000289FED060AF7EE3F
:102AF000007ABFEE007A18BFF0EE477A87EE800AC0
:102B00002220C9E700000000F0EE407A30EE407A63
:102B1000F4EE677AF1EE10FA87EE070A01D621206B
:102B2000BAE77047014B1868704700BF18000020D3
:102B30004220723D00000000206F703D0000000048
:102B400020726570733D0000207061737365733D82
:102B500000000000206379633D0000000D0A0000C2
:102B60007861692D667720626F6F74206E6F64657F
:102B7000733D00002074726565733D0020687A3DE6
:102B8000000000004320693D00000000206D3D0072
:102B9000207068693D000000432065763D0000001C
:102BA000206267453D0000007370696E317300005C
:102BB000696E6665725F746573740000696E666540
:102BC000725F62670000000074726565736861700F
:102BD000000000006F63636C7573696F6E00000026
:102BE0006C696D6535303030000000006B65726EC9
:102BF000656C3231000000006B65726E656C3231BD
:102C0000300000006B65726E656C32303936000042
:102C1000230D0A00D5E1E83F707931400ED3C33D62
:102C20009F679BC00FB71AC071EBB9BEF403884011
:102C3000561008C008E699BFF2840240F092534053
:102C40003C9412BFF6C90BBFBC6BA83E500E36C0F9
:102C500080B3F2BF4D71493F5E3B6D3F5657024016
:102C6000A258773F14402ABF1811CABEAA2EB4BD7D
:102C700023888B3F2FC1BABF6ACE763FC2D23EBFF8
:102C8000F8B989C00B451840EA12C7403D49D2BE89
:102C9000358CE7BEF874733F4722CF3FE8BB424014
:102CA0002247143F8BD857BF70F68F3E715961BFD2
:102CB0004D2526C0ADEE1F40457D0FC00A863BBFA7
:102CC00089AF4F3FA5750FBF0934A23FC0984FBFD2
:102CD00077892DBF9B7704409554D63F854B8FC095
:102CE000B30459C08F4B5C3D8EEA1840A03998BFA1
:102CF0005108C3BF9AD32D406DF61740D4B3A340FB
:102D00002EE7BF3EF9D8CF3FE1D69BBF21A73D407C
:102D1000DC678C3FA71DB4BD34354FBF30F9233F6E
:102D2000E82C393FE86E84BEFDD5E73D27E55DBE62
:102D300012F5EABF4BE5A040375C6FBFE2C41FC08D
:102D4000A1E5DB3FD8DD8CC0762092BF551551BF81
:102D5000EE35053FC0AC1540E3A30F40D7AE36BFFC
:102D600055EB8DBFE0466C3E4B4E6B3FE1E2914030
:102D7000FC8A20BF9261EABF4029803F1EB2DCBFBF
:102D8000FA11A0BFFD7BAABFBADA97BFB02D70BF02
:102D90002C51123F5C6D1D4051D7AEBE13100CC0BC
:102DA000C89A593F401746402D7976401B8079BF1D
:102DB000123DB93EE3D8BCBF9B96E43E36505FC09F
:102DC0002ECFE9BE925F94BFD994FE3E6A70A03FB9
:102DD000F2ABF4BEF5688640DC047BC02A2B133FBF
:102DE0008613A6BF7BDD363E0809663D14789FBF7B
:102DF000C70D4DBD35749C4014D3C9BFD1CFAEC0F3
:102E000047ABF73F74E070402F0486BD8E86113FBC
:102E1000A8AEE6BF416329C07178803F609289BF48
:102E20005DE70840BC85E5BF284D37BF47FBE63F5F
:102E30006986A0BFFB6CD83F8B0E37C04C9CADBEE3
:102E4000186C123E7F25673F9A4E25BFF60814BFC7
:102E50003B0B1FBC8BDA66BF556C1D3EBC14A0BF7C
:102E6000BCD20B3FE77A444048F5C03F00F976BE3C
:102E7000EEA7F73EA3AA91BFC594463FC57F6D3F1D
:102E80000083553FD8763E4090C03E3D021AECBECE
:102E900084887C3E4A8B8B3FD3CCB2BF2BF92CBFAE
:102EA000A8BE40BEFF892BBF95D4403FA977823F83
:102EB000BE15BF3E32ADDB40C20412C0DA0429C0E9
:102EC000FA550BBFC32641BFF49B63C0446A04BFDD
:102ED000387ECB3E3A6C9BBDEA1831BD1AFE69BF05
:102EE0002F2B64BFE8A441BF94AD903E5741F03F03
:102EF0005482D03F9EF6E93FBBF549BF2FA193BF57
:102F0000FF571D407805C1BFD2BF463F1B843F3FDE
:102F1000C4FFCABE672A0D408077FD3DDEB947C0B9
:102F2000B06854407C0B6640396CFD403F9D3ABE12
:102F3000EC86BBBFC4FB343F6A2A6F40A72802C09F
:102F40005A10FEBFC1A0E03F985792BF41288E3F64
:102F500057545CBFA21169409AF088C02015A93F60
:102F6000CD0CE03F7B836A3F0358013B183242BDE2
:102F70009A50483F0D7BF13FCB89E83E7BFE70C005
:102F8000CBF010C014EA11BED643EE3F1BAFCBBE50
:102F9000549F253F867E5640E190E63F16E73D4030
:102FA000740C9DBE0B2659BF4794D2BF8E59913FDA
:102FB000C1168DBF1624C93E73AE933F211381BE47
:102FC000CF31BE3E04F7BE3D0F5E4C3E567B6C3F9C
:102FD0008780A13F9C986FC0EA0E6E40898ACBBD66
:102FE000408C0CC0B383D7BC5B1F04BF2A28D3BF5F
:102FF00000AC6ABFBC4584C0CFE80AC02B8B58C068
:103000005EDBB2BFF4D0C2BE10232C3E7EA8C83F08
:1030100006C2B4BF9D90E43FB3EDBE3E0F4F44BE29
:10302000B2245F3F20C633BF30BB913FB4092ABFF3
:10303000D35400C0543A2041EBF76DC090688A3FEA
:10304000F8CFB83F05F996C0816B9DC0611E604006
:1030500012FF1D3FCCE89EBF8E8E3940EAF1ABC017
:10306000B511AABDD37BD5BD8C29173F343633C0EB
:10307000BEE930C03E4998401A550940FFFF19BFCC
:10308000E6CD29BF18D22DBFF7980C3F499D2FBF21
:10309000AD60D0BE705DA6404EAC49BE377312C065
:1030A000F413E6BF5014B1BF665EC6C0A5E2A33FED
:1030B00046B8B63F4BE6F7BEE4B725C0F9991FBF47
:1030C000E5B0083FC50948BF9C81A03D47EDBC3E27
:1030D00052D03240F606803E16658F3F9B85F9BE82
:1030E0005002BCBD442914BF59A2403FFD20D4BFAB
:1030F000A1291A3F8941A640860885BFCE4217BF45
:10310000C1C186BFFA9034C0C65A203F3EB6A83F20
:10311000AD1BBD3F0C58EC3F89994440E3B0853F5F
:103120005DB7693FE09FBC3F88BA6BBFC5231F3EB8
:103130005C6173BFC72B8C3FCA3FB5BDDA11B23F8C
:10314000D6CCDDBFD8FE4BBF19BA8DBD82D4383F77
:103150007B20A6BFB65A583FC17C813F155E36C062
:103160000DDA0F3FA1CF4240398FE54097831640DB
:103170004DB3C3BFFA7A04BF9E4B784030D80040AD
:1031800087DC8FBF8362463F0B3AE9BE72D55BBED8
:1031900020AD57C055EB493F76DB6FC05DD114BE03
:1031A000B89A9FBFA93B9BBE31AD183F703B153D00
:1031B000F5ECBB3E1A3A1D4144D934C0F709B0C002
:1031C00077606940B7C30B4079446CC09DFF1E40D7
:1031D000416EB6BF0A1E26C064DBD03FAB1BF5BFF5
:1031E000ED34A13F9E111CBFD1E5C63E253B613F9A
:1031F000E0F0BB3F1BCA0B4043801FC02C5EDFBF0B
:10320000D409AE3F37F898BEED2B5F3F9D39B6BE6F
:1032100035B2BEBE77CB1D40E185CBBFDE49CBBF0B
:103220004B0E83BF62C024BE143C17405A5012BEDE
:103230005D67943F05A535406740F23FEAA911401C
:10324000FD4D05BF8C2439BFEF557BBF0093243F54
:10325000F00AC5BFCD14043DCD32F3BEF8884DBF92
:10326000A6A7263F979BEBBBA7A6E8BF6CBDB23FC6
:10327000A35B3BBF953C3F405584113FDCB6E7BFA5
:1032800081288EC002ED9C3DD9219A3F52380640DC
:10329000AEC4FEBE2E5C12402968CB3FFEE747401D
:1032A000B333273F3D5D52BFAF3A043F4FEA33C0CF
:1032B0004EFE4BBFE23A3440B05A793F33DE83BF13
:1032C000F9B4863FF98214BD78E8C5BDBC1418C0B6
:1032D0002F8C623ED29198406696CBBF85A9133F52
:1032E000B8467B3FEBB28FC062565BBFB95B583FBD
:1032F000DA005CBFACC708402648FB3FE8B6CBBE4F
:1033000079E98C3EF486DE3FF6FF0FBFABD4C33FB6
:103310002F209EBE3E7D9FBF2FFBCE3E549C943EF1
:1033200039C483BF57EC2EC0463E6A3FA26D853E2E
:103330000072B63FA2E8B040F19959BF8064C1BFA6
:10334000578A09C06CD28ABFA6F345C01A770440D9
:10335000577F7EBFAC99A8BDFAD00A404165853F32
:103360002FC72F3F0452803EBECFD0BE55D618C0C7
:10337000335990BDBA945740175DD53F6DB623BF02
:1033800053F5CC3FB87CA9BE2B0BBABFE00EC6BF2D
:10339000A01F85BFDFF67B3E53F8F63F1258B5BF3E
:1033A0002A3D02C09433773FAB6C3240D0F33640B5
:1033B000F4A5C53F0CD813C073D9CE3F8BA4EB3F07
:1033C000E5B1FEBEF9E75C3F4C30CB3F144150BF46
:1033D00097504CC01F8C013EFD0BF0BFFD20EABF93
:1033E00006BD853FAACBE63F175F1A3FE769953FC9
:1033F00075F8103F50192DBF380CAEBEB08CB23EE0
:10340000819A843F91DF7540B9415740756BAC3F5D
:1034100029E234BFE54F6C3EB1E55A3D88C931BF62
:103420002FECA13EF1D242BED54463BFB74B5AC088
:103430005E0A023F53232840856CDABFAFF0003F9D
:10344000EE9C0EBFCD2612BFF484F2BE1F0DB53F19
:10345000C400E73E70D311410CE48DBF697B92C07C
:103460009AD5733EE95404BFA44204C16ED1024010
:103470005C2E67BE0738A5C080E014C082C4A8C017
:1034800063ED893F723D243EF23721BFA6C1C33FA1
:10349000270ABD3ED06F2D4011187CBE01A2C43C4E
:1034A00046854FBE09FABEBF68845F3C6988D43F39
:1034B000F92D7B3E58F2CEC018F1C43F59DEEC3DE9
:1034C000625B3140F056EB404CF3B1408B42BEBEE4
:1034D0000C0487BEBE25C1BF87D10CBF8A6B0EC04E
:1034E0008183B4BF6654FEBE0AC6E0BD9A7670C042
:1034F0004886D03C54C367408419BDBF142FA1BD7A
:10350000B9AC943F4AAA8E3EBC7F75BFEF43913F52
:1035100045518B3E591188BFED981F40901201C054
:10352000AA5FC3C0D68B3DBEFDDBE540BB4DAB3FC4
:10353000AAFF953FCA2322BFBC3A024063F88340EA
:10354000BB1C66BFE9685ABFE3CEC03E5832E73FB6
:103550004E52E6C0D14F82BF7E7E3FC021BE5DBECF
:103560001C0FE3BDBAF1933E62B9A2BEDC1DD9BF08
:10357000BCF808BF0AC49BC0B05F2D40D58BCEBE3F
:1035800056B5F83FA9B71F408331E940F1493A3FAA
:10359000FE39B4BE867EB43E6D81B53F53D432BF92
:1035A000C0C3373F0EA87F3E2FCCEE3E0F0E14BF98
:1035B000AF8B30C0688008BEE0769ABF5A5B83BF8D
:1035C000EC30B23F49D20BC001B0A6BF461CEE3E64
:1035D0007E3ECB3FCC9FF440961CE9C027E26DBFF6
:1035E00016B20A404BFEAF3E62480EC17DBCF73FAB
:1035F0006310D8BE92EC5FBF0C70ABBF6ABA85C0D7
:10360000B0DE7A3F258430BFB5DD30BFD4C082C084
:10361000EDF53BC0437546401A7E8140FADAA1BF02
:10362000D1B5F6BE75872CBEA1EBEABEABECE53D8D
:1036300095C0703FD37A5C408220853C04D85CC042
:10364000EE13343F6AEEE93FBA264E3FF36B674014
:10365000103CF7BE3699A5BF896E653F3FA8A6BE50
:10366000575D5F3F6CDB99BF3EE308409E1498BFF7
:10367000ABD824C0193B093F46F07CBF80E81D3F12
:10368000FD93C73F4EF2F13E8D3DCC3F86C98ABFC8
:1036900074140BBFB79008C024911740BB5429C0C5
:1036A0002EEB4540ECA22940FD6FCF40CF388C3D3A
:1036B000B6DA253F942B18C022138B3FECA647C0E7
:1036C00003DF0A3F941540BFCE119D3E3087354041
:1036D000B3E05EC0642DF3BD79D05FC04193F93E85
:1036E000B8E5253F71D288BF0183D03F809D013F5F
:1036F000CD80AD3F7E771140DB4FCDBF0FFE9FBF2A
:10370000FBD303C00D4A803F25A9B4BEE96CA0BF1E
:10371000D8C040BDE445B63FE448683F244B693D0E
:1037200065CB90BF395C6BBF30A2C4BEE388B6BF27
:1037300012CBFABEE5BF87405EBBA83F1508563ED8
:1037400000B8003F28CB233EFCC3F83CD17D5ABFD4
:1037500024FCF33C336CE33F466E06BFD9CF62BE18
:1037600067BB25BF8273E3BFABCA38BF4D14353F7B
:10377000246256BE2E54A83F0F38B23F579635BE2E
:103780002892C53E895D5D3FE9D0BA3E3DEB88BFDA
:1037900029F6DABF7A77933F9A9512401986743FDB
:1037A0007CDEE83F087208BF5E2D2EBFCB1F033FB3
:1037B0004CBB1CBC7E8DD33EE047A83FA16038BF08
:1037C000298018C0546EE53E0599DF3F5F2B07BF87
:1037D000B0AB273E00439ABF6B985B3F6ED538BEB7
:1037E000540BF33E0697064041F701BE1368A43E12
:1037F000CBB947BF014B2F406E2895BFDCFA24BFE1
:1038000087050A3E5184573E38AB923FCE4E3CBFAF
:10381000A83C953C24E0034198027ABF55F43EC091
:10382000589ECFBE92D5313F51A422C03FEBA53F59
:103830003906EB3FA80530C002FEFA3E2BC262C03B
:103840002D9A87BF1C0595BFA7B51BC001D7593B53
:10385000E45BB43FAECDAD40C0310DC0E86DCC3EB1
:103860005154BEBE2BF51BBF29EF763F1ACAC83E86
:103870008533623DF731B3400E754ABE06A62B3F35
:1038800018DF8DBFF83F8CC091D0183F13152F4023
:10389000E75458BFA93E1B40F3A70940024F163F0B
:1038A000CEBE09BF1CD242BF754A633E032147BE4C
:1038B000D1205B3E6C8AA6BD183FCABE20A364BF60
:1038C000B3E18BBE28FACFBFC7873A3FBAAA8A3F77
:1038D0002A0B93BF9F5CB7402F2493C02251A43D75
:1038E000DBC18F3F881098BFBD6555C0F2479F3F31
:1038F0003B012F40D52B303F54BD15405300C5BF71
:103900007350DE3FA50A43BC1EF42EBE1E2E35C0EA
:1039100057CB2AC0B9ED47408A4E2440294601BF03
:10392000338287BF5258F6BE1FC785BE66E25B3F33
:1039300006CB383F452D6E4017204ABF289A3DC020
:10394000283B473F95B529403C7CC4400155044085
:103950006FB125BF6E587D3FD8355D402CA0C83F64
:10396000939EB53EE4E891BFDC17813F3291E3BD01
:10397000CD56F2BF80A9B13F67B480C0F8F08A3E4F
:103980004456F53EABCF13BE08A79BBF7C8E1DBF30
:10399000FC7BDE3F5181F53F8442CEBE3B2B39C0DC
:1039A0009B7F52C01EAAD33F39B9803F2118B7BFB1
:1039B000DB27BD3DC9FF06400029E83D78AD164034
:1039C000D460693E6C5243BDAB347EBDDB34FE3EF9
:1039D000E9CF2C3F4C8F0C400322B8BE4D05C9BF28
:1039E0000D47053EFFF88EBFC627B0BEA8E948BE0A
:1039F00087102E3FC01B803F96AF89BFA7BB2DC04D
:103A000095F996BF3E43883F847454C0010E42BF6F
:103A10000418383FE7A0F3BED11A65BF42FF703EDD
:103A2000009CB03DC21D3DBE1EF34CBF0234933D11
:103A300013EBB6BF03C64E3FCAE20F40DC9322BE73
:103A400079AC603DFB6A82BF8C4B94BFC4FF083DDC
:103A50001237283FB319B7BF1C34ED3F59A0E63EDB
:103A6000E7DD27C03C5F3EBF4C9923C03B6625BFC6
:103A7000A5E706BFAEBFD2BF349206BFC649D43E4B
:103A800084DF13BFC7D1A1BF26AC1CBF5C5B11BFD5
:103A90007F4C3C3F1C25B23FD89ADE3F80A21A3FA4
:103AA000267D84BD532C1FBF435B9CBF900ED4BFAB
:103AB0002327C6BF060B8D40DA05D8BF7FC5F4BFEC
:103AC000B381C2BFC17899BEE016D3BEAB07463FF3
:103AD000887E53BFAD26B33F395B344011A9D23F36
:103AE000184CB13FAF4DB2BD8AE4D2BB74F7A6BF4C
:103AF000D892B2BF200F2D4012738A3F04C058BE27
:103B000015033C3F94EBF13E86958EBE1F35D5BF25
:103B1000F8D1FB3E824BD440BBCB26C0BFE048C0AF
:103B20002A3038BE1DFE70BF4C3237C0B8C0B1BF9E
:103B30008FC7353EE3FF5B3FC64B8A3FFAD3323B2C
:103B40005F4F433F4FEA3B3EA62DB3BF6B042D4072
:103B5000C2DC9D3F1543B93FAC84DABE9A9045BDA7
:103B60006B822BBFF62AA73F7C1C31BF584FA5BFE5
:103B7000BF00D1BF78E9DB40C36EF53E972723C075
:103B800062BE66BFFF2B90C04190EBC028575840E3
:103B900098CEA8BEE4E01EBFB0F7CA3E329B223FDB
:103BA000D8B4FD3E47F9B53FE49A7B3F37F8F23E83
:103BB0007E939B3F6EA1B3BF30023740C722C5BD85
:103BC000362DCC3E068CC83E13D3AEBE3AE7C23F7C
:103BD000C11EC2BE89060FC1474638403384024029
:103BE0003AA836C0E0DB004018A5044064AFD3BF5C
:103BF000AD87E73D4918A13E190276BF4D284240E6
:103C000072FBF7BEB22BF3BE44CA8A3D59EB15C016
:103C10001C7D24BF851A88BE5D3A18403FE44FBF23
:103C2000CCD293BF3047CF3EF1A24EBF8120B3BF6D
:103C3000A27D1C3FE477D63FF2DA703FD41C9FBFD1
:103C400094FAABBF1E2C1F406CDF8240B40D344091
:103C5000BE599EBF37D0DBBF08B38F3F299B9C3E28
:103C6000887F0DC0A12194BFC18AF7BAE9C5D7BF2B
:103C700031CEECBFABF4094030205CC097D7E5BE35
:103C8000AA9401BF1A4D603D16A061BFA76CEE3E1D
:103C9000DE2D5BBE1E6FA1C01F084E4065A0F13F28
:103CA000A35E38C02018903FE193C84026F3343F0C
:103CB000DA4F76BFF788003F32BDE23FB8572B405E
:103CC0005148FCBFE46F9CBE88B620BFAB321AC01F
:103CD0004AA4CDBF3AB6963F7B9B57BF409481BF65
:103CE000B0DF0BBF4043A6BFD15AC8BFFF0C60BFB7
:103CF0009BC1FFBF691A11C0E978F33F3829393FEA
:103D0000476E5DBCE6B0253F92AE78C06FD91040DB
:103D1000C602573F171A40C07D57F7BF9F0E0DBF11
:103D2000DC6ADEBFFAB5143F6F64D4BE540735C0F9
:103D3000DB5A333F19D6D4BEA95503406808483E24
:103D400061861A3FE4AD2C3F118328BF8E52923F0B
:103D5000C55F3EBE09DD47C14C6F3540DB432C409B
:103D6000505E043FF623B040D4DC2A405099FFBF98
:103D7000FAEA06BF82F2C4BF20FA4DBF20CF6840E6
:103D8000EA0714BE6B44143FB751AABEF08F4CC073
:103D90005DC0843FC5D19CBF8AC18F3FB75C6B3F7C
:103DA000C14F0F401D7EC93FF89EC9BF9B32DC3E0C
:103DB0001DD1B33EFAC3E640C4E781BFD4EECBBF0A
:103DC00039DB0FBFB2C464C0F2FE3DC0B5A09F3F57
:103DD0003520003FB420823F30C7A23F0AA17FBFF9
:103DE000C7F28EBFB63774BFA7B7C0BE65EB8C3FB6
:103DF0001D12483FF932973F6CC11F3F71F2C1BE9F
:103E000097F23B3F747B4F3F50A7113FF0C3F2BF87
:103E1000A6AB8CBD9D069B408D103F3F082D5CC01E
:103E2000ABD263C0746DB9BF6911F43F0071064035
:103E300057CBCA3FCFD68D40CAEDCA3F8B8B8A4045
:103E400012036DBF94B2A73F30F56A3E75129D3ED6
:103E500001D60D3F3078D2BE02ADEABD199BB2BF8C
:103E6000FC201ABF5CC586BFD084C63F0232B53E77
:103E70005AE17BBF085D2541A511BBBF008BA4C0E3
:103E8000B2D3063F8B79033F866E8F3F01673A407E
:103E90001E94B93FBD6218C099C6B33FC87B68C0C5
:103EA0001540D73C7A00D2BF5A62423F40390F409A
:103EB000423D18C066CC4640E9D294C0F49FCBBFC7
:103EC000235C94BD374E9F3FD069D8BFABB66A3FE5
:103ED0000AC0843F322E1441AB7615C079B6F6BFC6
:103EE0000DE9843FFD1583C095FAA3C02085D13F1D
:103EF000A6D8B23F343CE83E74195C3ECBE838BDEE
:103F00009CD2AB3E07C4D63E9EAC0C3F18D1554068
:103F1000E92131408ACF17C09E50AABFA555043F62
:103F2000134781BFE1751F3FDCFCB73F14ACD43DA4
:103F3000DC28723F0889394074AFBCBEB38A00C028
:103F4000732C5FC05BD7053EDB44263EF7724A40C8
:103F5000BBFA07C0B546C43FEAFBEF3F22171D403E
:103F60001B56D83EB6F499BFDEF1CBBF5E6A79C06E
:103F70001BB364C0727D1A40C7C61D40526E81BF1C
:103F8000E7F9763F9F3C0C3F1CF45BBFCC7D2EBF16
:103F90004A04A2BFCED0A0BFC812233FF0106EC00B
:103FA000C85DBCC0C73D4940D2432FC09773A3BE74
:103FB000E7A923BE55803BBF848E94C04A37D2BE4A
:103FC000C4ED04BD90C6F2BF6F8F25BEEE3EF9BFB3
:103FD000706359C0A6712F4098EA4A40FDEB094032
:103FE000E041303F77AAC1BE4B4CC53F3D6849BF59
:103FF0005068803F01D9E93F3A1D7BBF7F8B2FC0BE
:10400000E69FB13D8F926B40248C08408899843F95
:1040100087C956BF747899BFB77727BE876BAFBE85
:104020009E9508BFAC627E3FA24650BF3E13C9BEFC
:10403000541AE2BFF28FB93F761E25C00A0ACB3D63
:104040006BEAC73FB14E413FE4FD0A3E19BBE53F75
:10405000E1BD63BF6458CF3FB318083FCA8C2EBF81
:104060006200ADBB58740340E7629F40CD23F93E28
:10407000F82FEEBFB5AA5BBD506EB43FCE9EFABF1F
:10408000F7FD3C3F10AFE43F4BCA6D3DD8654FBFD5
:104090006BF2C4BE2CB180404CAC3FC0F98C9F3E4B
:1040A00000F46C4069F10E3F3F70CFBD2BFF4A3FDB
:1040B00060F4473FFD576C40570824C095E4333CFB
:1040C000D81CCABFFFDE0D3F4A87BB3E9C9D7ABE0F
:1040D00026D6C23F51A3D8BE9D91D13F8B1DD6BFDE
:1040E0008C8A85BEAC0F8CBC9BC6C6BD0851EEBF8A
:1040F0008A9B21C040AEA440A8BD42BE43C5D13D6D
:10410000F44501BF47D943BFFCF0A2BE2FC037BF63
:1041100023E8F0BE1AB4AD3FA18DABBEE3336DC052
:104120001A5A0F3EF4A93A40FD054E4050438ABF4B
:104130009D0F0340B71525BFE4751C4045DEFD3FCC
:10414000E9264B3F52DC393B105916C03D1911404E
:1041500089C790BF6A7E613F179435C07A97B6BE13
:10416000B382DBBD23DC733F1B6994BEDB9E7A3ECA
:1041700008AAF03E6DED82C0E2133840A98A743E71
:10418000A7FC43C04C140140FA4D6E408280C03EF3
:104190005F50853FF0BEEABFC9BE32BF5E9DB83EEC
:1041A0000FC805BE9DC5B4BFA9D7863E7FDB94BFAF
:1041B000542A19C0EF22AB3F81FB8EBFEF024C3F68
:1041C000E0E37B3F849E9B3F4E102F3F0BBD8EBE96
:1041D000E8508A3ED5543040719DD13F484491C04B
:1041E000521E88C0EB273B3F0A20B4400F563FC009
:1041F00024D00D3FD6498540ED7A534022A7904008
:10420000DA7C77BF72CA163E0D065A3FF4FD634052
:1042100077DB004001CD3340001B19C0AF8F68BF72
:10422000E03A593F0FEEDCBF14CA6FBF5AA140BF3E
:10423000F8BBC2BE36723340A271FFBE16F4C9BFCE
:104240002BB566C01921A13E6E22A23ED50F254096
:10425000C22CF53E0313F53FC961EB3FB2B6A43F54
:104260005390613F665C14C089E83A3F195B95C082
:104270001F1958C0B7A98640B13E44406239C23EBA
:1042800043DB7DBF4FD6E73F2E1B2F3FD57038BD98
:10429000C0FE95BEE4DDC6BFEFCD98BE56EF773FBA
:1042A00089E030C0E36C093F6DF8ED3FFD621140DD
:1042B00092C9E23ADC770D40386E663F6B9CEB3F6B
:1042C000A62F6A3FB646B73DCC27F93E068FA4C05D
:1042D000CCF37BC0DA45DF3FEEC64140C1AD0840BC
:1042E000E6F485BF0B31B6BE494E5EBFF35DBEBF7F
:1042F0008B28C53F349104403D96DE3FB0E24C3DF3
:1043000003708CC0A4A405C06130DDC08CBEFC3F2E
:10431000E704C8BE51EA3CC06EA2ADBFC312F33E73
:10432000A624AA3F5A8B2C3F2A6C90BE9A0E18C026
:10433000282E8A3F300BFA3F1E993E40852E903F33
:10434000EDFB93BEEFF5EDBEC02BF3BE6C9198BDB7
:104350007F81833F70379FC0540A0C40272D573F01
:10436000AEE6ABBF051B694086E9F540AC70B83FCF
:10437000AD8FCE3E83A4593F419D0640CD39444088
:1043800035B513BF919819BF625ED6BEF0B45FC059
:10439000461603C099B1A23F0420CFBF205F7ABF69
:1043A000AE2DD2BD25BBA03FEAFD96BEAD61343F28
:1043B00008262A3ECEAC90403A1C30C082D1D73E6F
:1043C000109333BF1EF184BF4B3BA1BFE8B9EE3F52
:1043D0001A1C873E7A6A203F23F9ED3FC5B0BFBF64
:1043E00026D61C3EF18EB13F983C453F5CA35BC096
:1043F000B7D13CC0D27673404B52F43F52B0D03E5E
:10440000E56883BF9CC26F3F71DBAE3DCA799E3FBA
:104410008FDE044088D96B3E2AE1DE3E9435B8BF7A
:10442000F63BB43B450190403B3F11410AC0823FFF
:10443000AFE81A3F5550693F14514E40C2C1EE3E9D
:1044400024BB813DCC74303F2E82963F4494F7BF0D
:10445000BC57F8BF93148540689085C061CFFF3E7C
:104460003740D03E148B4F3FC9F3EF3CC86B97BF2A
:104470006EBB7BBFF78A4A40BA5BFF3F62755AC08A
:1044800093E7D7BFC29CC3BF00BB48C09435F13F80
:10449000E8B292BD57CE60C0DF5C293EDCFD89BF2B
:1044A000C740D53E3ADE5B3E1E60103F9D7EC73F53
:1044B000454D1BC03792A83ECEFE413F8AB5D63F40
:1044C000715735BFC0D420BF6C0D5ABF9BA031BE01
:1044D000A65B363F0DFE17402FF05DBB7C35A2BFBB
:1044E000784D16C0030686BF3B45854011D408BEF3
:1044F000AAF307BF98244440B2357740A81E2E4047
:10450000C21D983F14C27CBF8B9E6FBF5A474C3E62
:10451000CBC0D2BF8355FC3F8B5FA5BE94219A3E92
:1045200093CFD23E2F3E7A3E67716ABFDDED06BF64
:10453000B2B7A2BE7AF31040B077BEBE0B4034C013
:10454000ACBFE0BF3EDAB53E0A43A3BF615044BFF3
:10455000E6809EBF38E08B3FCF87AC3F687102405A
:10456000C5DEEC3E84455BBDB43ABA3D76F8963E76
:104570003486323EE67FD03FFB8CAF3F87DB89BE7F
:1045800057702E3D4A508CBD62C610C052B7EFBF67
:104590001988103E4AF8674055ED96BFB910C83DDE
:1045A00054A4C93EBAC020C0BFC74CC0693436BE8F
:1045B000893A893E6147FFBEB8AF9C3F08743BC053
:1045C000191F6A3D19C7F33E481EF43F4D6291BE64
:1045D0006CA547BF2EF635402FFC0E40DFD2FEBF44
:1045E0008CF182BD2249843E7BA0A03FE68D23BE94
:1045F000CDFFFF3B72C5B540978326C05AF6EEBF8C
:10460000FD25AC3DB9D306C0CF617C3F853FAE3FB1
:10461000327410C07A8246407DDC3D40F4350A4059
:1046200035F0DEBFB92D263E04FE0F3F0114803F5A
:10463000C57CFABF91D082BFBE2F8EBE0B0DEC3F62
:104640001A68703FAB38C13E19ECC53FB162DC3E21
:10465000A3B1BE3FA70A3CBE832119BEA51AF9BF6C
:104660008875063F901BAFBF5F8508C154B5AB3F4F
:10467000A07CB23F9A99E4BF926008C0E740034033
:104680002588993F4E5A8C3EBACF5E3E2D0CFC3E9B
:10469000D0E568BC25869DC020C889404B3A793E4C
:1046A000BCC777BFA5154E3E80891D3F355B84BFD3
:1046B000D381C63E3E3B9FC0A1F539406DDAE2BDD5
:1046C000766C42BFA6011A4053DC7D40DF126F3E7C
:1046D0005F5885BF690CC7BFA02C9D3F3C6FBE3F94
:1046E00086087F3EB10FA03F696394BFB0C48ABF04
:1046F000C8E7EABF4940FB3E30AE04BF22FFC5BF5A
:1047000065AD4DBF1F75D03F159B8EBE5D2BB03F75
:1047100061E7B6BEB0E29F4069E5BABE0E28CDBFE4
:10472000335F01C0A54CB2BF28937FBF5EF062BE6D
:10473000FD6FB83E1C9F9C3F9365D83FAF29D23E8A
:10474000EA1A68BFE1F29FBE1DB583BFA84EA93E1D
:10475000C7D2BF3F6DF2474015C80C3EB682A33F9B
:1047600006F9123FD1713C3F6865093FA21D67BF42
:10477000744ADB3F22136B40386165BE9F8A01BFDC
:104780004E1285C0E66039BF5037C640D3361C4054
:104790000EA34CBFB01E8E400A86744003A4224074
:1047A000BAEB20BF57B556BD25F40340C48A53C0A9
:1047B000006F49C0306E7D40E02888BEB542893E1A
:1047C0002A1F353FE167A53F3520383FB891A03F0C
:1047D000F66F13BFFFE6CC4031ECD03F2CC644C08F
:1047E000BE1B32C09D3B08C058E1493F207A314092
:1047F0006E0C053F33B6D9BFC0CA3240CFBE5DBFD5
:1048000014EC103F772D9A3FE5AF6E3BAC7C223F16
:10481000D1A52BC0047D4D40B1AB91BF459EEC3E70
:104820007FC1213F0E9DCABF3C530F3FAF3445BEF1
:1048300067A5873FF959DB3FDAAF0BBF14DC4BC0EC
:10484000523C4DC06501BD3FD42091407EFB763E79
:1048500019A787BF8E4881409F3100405D28914055
:104860002A63833D71CFF1BE22CDCBBFC51A10BEE6
:10487000570EF9BFF901143F69B526BF14F240BFC6
:104880001CC30EBF689D9E3E9EE4893E188AA13ED1
:104890008FE70F3F0B61AEBF9F4A1040A03B54BF54
:1048A00079B185BF9964A43F8831BD3F85B43B3F52
:1048B00044D79E3E97F33FC013E3BA3FEC939D3F2E
:1048C000098D333F181279BF448E97BF15CC573CE2
:1048D00059D37CBF532D383F15CBB7BF477BC2BDE3
:1048E00041ACBD3D6464A73E75FF8EBF96F4E9BE42
:1048F00054A531BFE574543FAFA1A83F97761FC0C0
:1049000029C2D93FDC52F53F8E259ABFA6701340CD
:10491000D1036ABEBC6860C0EC8AD4BE46900AC0AF
:104920004DF1853F63F135BE4585143FAEBE0CBFEA
:104930004A7E8FBF38470D3F9D3AB7BE47EDA23F35
:104940003B8DF43F8AC3D4BD245910BF0C4176BDC2
:104950004B4C633FD2B60041AB4933BFD598AFC093
:10496000F7A0B93D125E40BF58AC67C0CC20804074
:104970002892373F05040CC0262BCB3F4B43553FB5
:10498000D4A8643E6183963F9D9F20BE9B729F3F4B
:10499000587902C05ED55DBFAFF602BFEFEC35BF00
:1049A000AEEC523F1DCC123FB6CCDA3E932E6EBF1A
:1049B0004D1ED63FF2E7B840D91ECDBF68E264BFB6
:1049C0006038B3BF34FC1AC0B591BE4092E8783F5E
:1049D0006106A93E287E9D4081DB9140347FB43F33
:1049E000CFEA213FA5293DBFCD1793BF414ABA3E2B
:1049F000573F19C0A1D8034064D0C7BF5C01333F03
:104A0000C988EDBF9FD69A3D871F623EE05889BF97
:104A10005726DA3F17138D40C9DFF2BEB3532BC0C0
:104A2000C9F3F9BE96CCB5BE13568A40D5C5AFBD05
:104A30006918B1BE00223140992C7B3FA59600BF7A
:104A400066BFB33F553985BF532A533F4F9E284019
:104A5000FE0902BF1F57423F396237C07624D13E5C
:104A6000214A853E8D88D7BD7F4E403F77D40ABE10
:104A7000A12E9F3FE6AED43F3C5A82BF01EB12BE4F
:104A8000B46A7AC02E1B313F4C051840676A124049
:104A9000BA556A3FB7EC4C409A3CF63FEBA6E53F6F
:104AA0003DACDABF14D2563F8E7D88BE5DB2B1C038
:104AB0000FDB5FC096008D40E92423409E3FF53F09
:104AC00070EA723F345B80BFB761D93E9F6AC43FD2
:104AD0006AE7DBBF6152153FFAC80E3E22F444C0BC
:104AE00007E11FC0BF4BCC3F8647CCC03BB9613FFD
:104AF00015D042BFB9689DBFE59B8BBF0100064042
:104B0000C44D9EBF98DFD8BE3D570D3FA25C2AC062
:104B10003799073C2A1AB03F6D1D8E405E326B3FBD
:104B2000C6068D3F518833BF40AA1B405B1CA1BF06
:104B3000230B1340C40BA4408D4203C0B82A223F6C
:104B400081BD4EC0A76073BF01E11C4048D78640BD
:104B500093BCCEBF37CB16407B4308401F468A3FED
:104B600081F719BF0B9FB43F67017BBE473E98C0DA
:104B7000C84B75C08AA44540B5AE893D509CD23E15
:104B8000440FDC3F93691F3FE1E6093F8232EE3F6D
:104B90003DFA66BFFA7EADBE358A953FBF2C64BF35
:104BA0009C76AE3F33826D4056521441785E793F19
:104BB00044C3BABF7142FA3EB9223B40B9BFA1BF5C
:104BC000DEEB74BFB5556DBF3F08013FF94696BF98
:104BD0000F80D4BF26A56940EBF788C0A3568E3F4F
:104BE000720F50BF7CB3A33F385D95BFE05B0D3EB5
:104BF0002887873FE07A4E402562C03FAF451CC002
:104C00000897C2BF7CC013C04EE74F3F498095BF95
:104C10001335863F899CC13FEEFC3F40008B993F96
:104C2000C4F5D1BE078FB43FAC45253FC85A2A40D2
:104C300025CA8B3F9A06D13F19A52F3EAC90B93FAC
:104C4000D4649B3F1A28B93E2ACB9ABF65AB053F77
:104C5000F8BEAFBEB6F857407FA8A4BFD9834CC0FA
:104C60006AFD2C4015863F4043DA754079479BBF6B
:104C700097724E3F162B0ABE865620405F0D71BFBD
:104C8000772693BE5EA4573F144201BE6C34174092
:104C9000C619153FD10C1340E42B80C0F07077BFCC
:104CA000CFE46E3F69F5D03E68ACF7BEDCCEB63ED1
:104CB000D436F93F47A5EE40B1DB00C06B06FEBE1F
:104CC000A6C51EBF4F2954C0B58577406ADE0ABE0F
:104CD000E8C9BB3F055467403D7A8240742EEFBE61
:104CE000F9C03FBF8F3E303F7AEF56BF6921F03F9A
:104CF0004379F3BEF47C3140634015C05C2F6D3EB8
:104D0000B216CF3E3BCFDFBF42F27B3D7E2A9A3FB9
:104D1000696D8F3E294E0E4168FC56BFAE728BC046
:104D2000383EDB3FCCCB853D2761D6C007B5FD3F84
:104D3000D9050CBF42029BC01A55B63E994764C0C4
:104D400070F7C83F3D6A05BEFB017B3EE39C9B3F7D
:104D5000037FF13F6DDF4440284C80BF4C3A733EE7
:104D600011444E3F9880403E8AA996BF1554C43ED8
:104D700019FC4B3FC8FCA54055052BC0834F14BF01
:104D8000C97E4FBE86A6B4BF33CF92C05468B93F28
:104D9000D0A0333ECA1B723E6A5A0FBF633ED6BFD5
:104DA000AB7103C0F311523FB49808BEC33FC8BFF4
:104DB000580401BF501FC63FDCBCFB3FEB1ACE3F7F
:104DC0000CEB273F644D15BE20CC64BE3BD58ABE9C
:104DD000424AA13E741ACFBFA280363DAE5281BF77
:104DE000378BD83E57B52140A6042E40D952113DED
:104DF000262B42BF8ED310BFE402D03F83D668403B
:104E0000D761F5BE48EFCE3D0B6D293BAC88103F16
:104E1000D5EEA6BE6ABBD6BF619913C02569163E02
:104E2000AC88603E923E0EBF6874224011DA56BFD5
:104E3000C72B9EBECD701D41B51721C042C13E405B
:104E4000CC89773FD591FCC085120FBF17B4CE40F7
:104E50008B53AFBFFA8F3D4000ED834050E602C058
:104E6000C405F53EC2F005C0104E09BE602D48C015
:104E7000AB433AC0D9B6CE3EB86AA63F2B5D9CBFC5
:104E800026A55C3E0487AE3F3A33323FFFC7E6BEFD
:104E9000B95DBC3F935CC64097993FC02424254030
:104EA00002AB523FB34D87C0BBCC7F3F9F1922401E
:104EB00090C7C8BE25E7A73F530B84401448D4BF12
:104EC000D305C23FF5DABB3F133E833FD7DAECBFD1
:104ED000FCEF3EC028B70B40F2A769BD2C6C253F04
:104EE000394C37BF0DB64FBF0F44873F9455D43F61
:104EF0008421783E4C94AEC0CE80044074CD0140F5
:104F00003EAB5DBF53690F40FED82C4121FAF53E00
:104F10008F40BFBF26615C4056077340D6768A40FB
:104F2000F9007ABE6FED42C0174493BE9E8B15C048
:104F30003DDFC8BF70DD8A3EC43319C0D1EFA63E45
:104F4000F9EA60BF66730C3E2CA0064058058BBF83
:104F50005AEFA03D73ED87BE379578BE3E5501C030
:104F600052BA0EC0CC1E413F9FA8A13DF731C43FAD
:104F7000FBF6313FA62CCE3F0BB6CF3E3E4950400C
:104F80009AD91D3EE36A10404252A13F6A7CE1BFBC
:104F9000A2AA40C0DBDF60BF8DF90E4066FA50BFA9
:104FA00035D416BD7D420ABF511ADCBE678B963ED2
:104FB000AE45713FCD864CC039021540A56D933E7C
:104FC000911485C06124CE3F86BC9940B6CE0C407A
:104FD000FEF433BFA36F3F3E5FE5973FB3CB69401D
:104FE0005A429B3FB50BBF3E1E6D29BE6AAC48C0FE
:104FF000E2FB54C018D7413F74AACABEDE7F193EF7
:105000002436D93EB9EBDDBE416783BFCCAA88BC4C
:10501000AE3F803FEC48DB40BCA4BBBF1FDA7EC084
:1050200007EC18C0B419B63B542691C0B00AED3F46
:105030009B8B4EBFEB554D3FFF607F3EE55E34409E
:10504000EB830B3FDCFC953F373FE6BD64F40BBFC1
:10505000D0F3D73F80AB6B3F059A483F4F5800BF16
:105060000E4EC1BF8E84063F66F8C3BE958A103FC0
:105070003D707A3F3ED3C04064D828BFE19C6EBFEC
:10508000F598A4BFD06B36C03CDEBABEBA7DDB3F1C
:10509000B774D63ED4F62540FD825440674D003F9C
:1050A000816F6FBF8FD504C031599F3DB1FDB4BF33
:1050B000AE5FC93D7B3B42401965BE3F443106BFF0
:1050C000CAA01A3EC61F423EA84F88BF137BC83DE8
:1050D0006C15773FBC6F3E40C563143F77D539C030
:1050E0003BAD64C063ADA1BE9AD0503FBFFD084048
:1050F0001F8EFD3E9C2B5A40630A1240A4244A4056
:10510000818E0D3DB08AB7BE9D4FA33F1BC333C0F8
:105110002A42C7BFF7321E403AD734401292503F5E
:10512000EB76753F89345E3E484DCF3F3DA1B0BE22
:105130002AB88C3DE25ABEC0F5C6954091995F3FB2
:105140007023A8C0A4E0B7BF0024D33F1BEA1F40D0
:10515000313969BFE4F512C0F4032E3FAA26AD40F1
:1051600036235BBE9F8BEDBE4E989C3FCC9D7BBF94
:105170005AD390C01D0566C05A309D3FA2DB37BE92
:10518000F31AC6BEEF79043F1FEBD9BE9728CE3D78
:105190000C88BB3F40469CC02B8F47400026373FC2
:1051A000A0591640A5098F3E38F997BDF21AD83E8E
:1051B0008D6FFCBEC9200FC01291723E3B6703BFCA
:1051C000949EE13EBD6684BFD2D7A93F54061DBE62
:1051D000D90CAE3E1141DCBFB61A993F85B60D3BE6
:1051E000C767653E5C64FEBDA630B4BF7FF9A83FCB
:1051F000FC3CE43EBDA0AA4010E6DE3F6D435EC02D
:105200007BF811C0838357C031099DC04AFE9B4083
:105210004FAAACBF60B558C031C86E3E675B023F55
:105220004396E7BE8351D13FF99A6ABF19972E3F43
:10523000B1E359C09FAD02C062ACAE3FA1F78D3F54
:105240001385BFBE229CA63D2A60E4BEB0577D3DBB
:1052500053D1E8BEE8ECB3BD6D5B713F5BB483BF77
:10526000E58357BF44377A3FC2C545405123463E88
:105270002DD62D3E5F24BCBC4A19F33F9043973F87
:10528000AE6B75BF5AC4DEBE8A51AD3F6BAACFBAB2
:10529000A30789BFB4EF9B3F1AF096BFD2A8123F75
:1052A0005242253F3794133FADFB143FD427843F30
:1052B000EAA49CBFF55F0040A90AF43DE64786C01A
:1052C000DB6689BF221C5EBEB96584BF9C14FABF31
:1052D0003D34833F0F1EA03FE17CD93F162C604038
:1052E0006A5199BF0D6D523E88B5E1BFC5F9664060
:1052F00057074C3FFA8589BF13DEDD3E34129A3FD3
:10530000022BE2BE65FD54BFF60B393F5EA710BF0E
:105310000A8C0E40E25D033E9638F83FFBE4673F9F
:10532000BA7005C0A9E25BBF84A811409837364027
:1053300040B607BF0105C53E7ECF0F40FA772E402D
:10534000CB799A3E81043E401636713FE64921C032
:105350009EA9CFBE9A92003F64F173BEC1BF08BF41
:1053600045F68D3F10B1ABBE42C066BF5585DB3EF2
:10537000A614ECBE04B0A7C02BCF37409FF33A4031
:10538000AA978CC041020B403FD49F401D64613FEF
:10539000ED236C3F7AC7153DC5D535BF1B9BFA3E43
:1053A000ED72A0BFE6DFABBF3E4C3E3F4E339AC02E
:1053B000CC02ABBF059A6F401C941ABED020533E5E
:1053C000EF8F933F33C99F3FA71A20BFD60B523FA1
:1053D00073739F3F218AAC3FFDCCE03E0D7E61C0E0
:1053E000B98C56C036F5CC3F2CC838C065C2A93E32
:1053F000DF83233E45EA973EA37C7ABFAD10204071
:1054000049A2C7BE6BBC013F67F790BFF35780BF8F
:105410007A1C9F3EB4E19D3F64CC004015DB45BE45
:105420008ECDB0BE2536183F1D206A3E65346BBE5A
:10543000B4E8123FF97A9B40C9A133C0B3FAE8BE81
:105440006723A9BFE0F841BF05B79BBFC35902401E
:10545000DB6980BF2A37513F0646BA3EABF65BBFD9
:10546000C99AEB3E30958D3F712CCD3D08CD0CC0D7
:10547000EB6235C023EA0140BA334F3F0A03433F92
:10548000BCFAA73FBA4005C0BE844FBEF8C6C9BF2C
:10549000BA90C83F4BACD03FC890033FA015BDBEEB
:1054A000B492B53F9761073EE1E0C4BE2688F53F60
:1054B0004D9367BEF84411BE19BCA73F30694EBD7D
:1054C0001A9A95BFC07016BEEF05EE3EA4FCC6BF8B
:1054D000BFB7B03F73D5453FAFB0183EADB8D5BDEF
:1054E00009DE423F822C0C3F40C59DBE5E431E3FFD
:1054F00059098D3F4826A6C0E99A6340B6D01C40A2
:105500009244A8C02056023F90C41441522D64BF5B
:1055100018D10ABF54314C3FF2757F3F5F87BF3FC0
:10552000251292BFDEB0863F7D936FBF70EA0ABF3F
:105530006CA73CC0B3A10F40F23337C065F3C0BDC8
:10554000E0BF923FD9FC8C3E03BCEDBE4066C03E3E
:10555000826223BF57ACBD3FEEE4953F2469613FB3
:1055600088D387C027F47E3EB4EB4940FE01FC3F60
:1055700092281DBF540D08BEB6CC2240DAE064402C
:10558000F853A53F9946503F75C2393F3F7522C039
:105590002C4B523977AC2C4020E80BC0053A35BF74
:1055A000D6FEB73F16588ABF7A57B73F7BA4B9BE1D
:1055B000A0D0FA3E6097A940BD4DD1BFBCABB7BFEC
:1055C000489BCABF11ADA63F4E905840B459ACBEDF
:1055D0000F324ABF3578E63F42D54240FB32CA3FE0
:1055E0004A45103FBCAA66BFDA5CD33EC5D161BE56
:1055F0008284BB3F3753884045A84FC007FC373FE4
:10560000A966123F4EDB71BE9D25BEBF2E526EBFF6
:105610007D5779BE539F94C0599C473F6F47483E82
:1056200048B3913E99F998405E6BF2406631723E04
:105630006139CCBD57148D3F4B16F73F4F3E334079
:105640008E8E463E01295E3FCB942ABD8F041AC040
:105650002D9EB1BF18AC5F3F5B7416C0795E5DBF15
:1056600095EE5EBF49FBB23E7B77A1BCA28AA1BF8B
:105670006826FFBE921C79402982F73D4FF922C06F
:105680009CE7B33F214AD93FD79D063F5B5D204051
:105690009841DDBE5F0103C089E20D3F837E04C0F7
:1056A000777CE0BEA9DB923E280D193FDB0AE6BEFF
:1056B000DE64E9BED043E73FD7C607C0CCD4103F75
:1056C0007865483FB3F1A63F5C9D723F949FE6BF6B
:1056D000810DE1BE7F22F6BFDB03AB3F8C29D73FB4
:1056E000387FBBBF9702DE3FADDFA840B7F0E93F90
:1056F000120E304085AED93FF34B3DBEAC7351BF67
:10570000DE19733FD87EDB3F753C553F3AA280C01F
:10571000FDA568BFC9AA37403B8B34BF2B19233F77
:1057200015BD7ABD983C7BBFFDE1273F4FA1D43E1C
:105730001517DB3D2469E3C0A6050340AB3C52BD11
:105740008CB304403F317A40921374BF76A4C6BE36
:10575000010290BD314302C01C82AE3ED16438408C
:1057600081D7D2BE3F3624BF737BBBBF2BEB0AC0B1
:10577000A565B43F8852B4BF1CEF004066BD11BFA1
:10578000E9FDA2BFDB2592BD33F59E3FBB6747BF56
:1057900033EDAABED5E1E83F707931400ED3C33D69
:1057A0009F679BC00FB71AC071EBB9BEF403884066
:1057B000561008C008E699BFF2840240F0925340A8
:1057C0003C9412BFF6C90BBFBC6BA83E500E36C04E
:1057D00080B3F2BF4D71493F5E3B6D3F565702406B
:1057E000A258773F14402ABF1811CABEAA2EB4BDD2
:1057F00023888B3F2FC1BABF6ACE763FC2D23EBF4D
:10580000F8B989C00B451840EA12C7403D49D2BEDD
:10581000358CE7BEF874733F4722CF3FE8BB424068
:105820002247143F8BD857BF70F68F3E715961BF26
:105830004D2526C0ADEE1F40457D0FC00A863BBFFB
:1058400089AF4F3FA5750FBF0934A23FC0984FBF26
:1058500077892DBF9B7704409554D63F854B8FC0E9
:10586000B30459C08F4B5C3D8EEA1840A03998BFF5
:105870005108C3BF9AD32D406DF61740D4B3A3404F
:105880002EE7BF3EF9D8CF3FE1D69BBF21A73D40D1
:10589000DC678C3FA71DB4BD34354FBF30F9233FC3
:1058A000E82C393FE86E84BEFDD5E73D27E55DBEB7
:1058B00012F5EABF4BE5A040375C6FBFE2C41FC0E2
:1058C000A1E5DB3FD8DD8CC0762092BF551551BFD6
:1058D000EE35053FC0AC1540E3A30F40D7AE36BF51
:1058E00055EB8DBFE0466C3E4B4E6B3FE1E2914085
:1058F000FC8A20BF9261EABF4029803F1EB2DCBF14
:10590000FA11A0BFFD7BAABFBADA97BFB02D70BF56
:105910002C51123F5C6D1D4051D7AEBE13100CC010
:10592000C89A593F401746402D7976401B8079BF71
:10593000123DB93EE3D8BCBF9B96E43E36505FC0F3
:105940002ECFE9BE925F94BFD994FE3E6A70A03F0D
:10595000F2ABF4BEF5688640DC047BC02A2B133F13
:105960008613A6BF7BDD363E0809663D14789FBFCF
:10597000C70D4DBD35749C4014D3C9BFD1CFAEC047
:1059800047ABF73F74E070402F0486BD8E86113F11
:10599000A8AEE6BF416329C07178803F609289BF9D
:1059A0005DE70840BC85E5BF284D37BF47FBE63FB4
:1059B0006986A0BFFB6CD83F8B0E37C04C9CADBE38
:1059C000186C123E7F25673F9A4E25BFF60814BF1C
:1059D0003B0B1FBC8BDA66BF556C1D3EBC14A0BFD1
:1059E000BCD20B3FE77A444048F5C03F00F976BE91
:1059F000EEA7F73EA3AA91BFC594463FC57F6D3F72
:105A00000083553FD8763E4090C03E3D021AECBE22
:105A100084887C3E4A8B8B3FD3CCB2BF2BF92CBF02
:105A2000A8BE40BEFF892BBF95D4403FA977823FD7
:105A3000BE15BF3E32ADDB40C20412C0DA0429C03D
:105A4000FA550BBFC32641BFF49B63C0446A04BF31
:105A5000387ECB3E3A6C9BBDEA1831BD1AFE69BF59
:105A60002F2B64BFE8A441BF94AD903E5741F03F57
:105A70005482D03F9EF6E93FBBF549BF2FA193BFAB
:105A8000FF571D407805C1BFD2BF463F1B843F3F33
:105A9000C4FFCABE672A0D408077FD3DDEB947C00E
:105AA000B06854407C0B6640396CFD403F9D3ABE67
:105AB000EC86BBBFC4FB343F6A2A6F40A72802C0F4
:105AC0005A10FEBFC1A0E03F985792BF41288E3FB9
:105AD00057545CBFA21169409AF088C02015A93FB5
